:020000040800F2
:1000000000000524ED0900087D0800087F080008AD
:100010008108000883080008850800080000000027
:100020000000000000000000000000008708000839
:1000300089080008000000008B0800088D080008EF
:100040003D0A00083D0A00083D0A00083D0A000874
:100050003D0A00083D0A00083D0A00083D0A000864
:100060003D0A00083D0A00083D0A00083D0A000854
:100070003D0A00083D0A00083D0A00083D0A000844
:100080003D0A00083D0A00083D0A00083D0A000834
:100090003D0A00083D0A00083D0A00083D0A000824
:1000A0003D0A00083D0A00083D0A00083D0A000814
:1000B0003D0A00083D0A00083D0A00083D0A000804
:1000C0003D0A00083D0A00083D0A00083D0A0008F4
:1000D0003D0A00083D0A00083D0A00083D0A0008E4
:1000E0003D0A00083D0A0008000000003D0A000823
:1000F0003D0A00083D0A00083D0A00083D0A0008C4
:100100003D0A00083D0A00083D0A00083D0A0008B3
:100110003D0A00083D0A00083D0A00083D0A0008A3
:100120003D0A00083D0A00083D0A00083D0A000893
:100130003D0A00083D0A00083D0A00083D0A000883
:1001400000000000000000000000000000000000AF
:100150003D0A00083D0A00083D0A00083D0A000863
:100160003D0A00083D0A00083D0A00083D0A000853
:100170003D0A0008950800083D0A0008000000003C
:100180003D0A00083D0A00083D0A00083D0A000833
:100190003D0A00083D0A00083D0A00083D0A000823
:1001A0003D0A00083D0A00083D0A00080000000062
:1001B0003D0A00083D0A00083D0A00083D0A000803
:1001C0003D0A00083D0A0008000000000000000091
:1001D00000000000000000003D0A000800000000D0
:1001E000000000000000000000000000000000000F
:1001F00000000000000000003D0A00083D0A000861
:100200003D0A00083D0A0008000000003D0A000801
:100210003D0A00083D0A00083D0A00083D0A0008A2
:100220003D0A0008000000003D0A00080000000030
:100230003D0A00083D0A0008000000003D0A0008D1
:100240003D0A00083D0A00083D0A00083D0A000872
:100250003D0A00083D0A00083D0A00083D0A000862
:100260003D0A00083D0A00083D0A00083D0A000852
:100270003D0A00083D0A00083D0A00080000000091
:100280003D0A00083D0A00083D0A00083D0A000832
:10029000000000003D0A00083D0A000800000000C0
:1002A000000000003D0A00083D0A00083D0A000861
:1002B0003D0A00083D0A00083D0A00083D0A000802
:0C02C0003D0A00083D0A00083D0A000845
:1002CC002DE9F04F8DB007AD0024079408940994E4
:1002DC000A940B94764BD3F8E02042F01002C3F84A
:1002EC00E020D3F8E02002F010020092009AD3F83C
:1002FC00E02042F02002C3F8E020D3F8E02002F026
:10030C0020020192019AD3F8E02042F08002C3F857
:10031C00E020D3F8E02002F080020292029AD3F897
:10032C00E02042F00402C3F8E020D3F8E02002F011
:10033C0004020392039AD3F8E02042F00102C3F8BE
:10034C00E020D3F8E02002F001020492049AD3F8E2
:10035C00E02042F00802C3F8E020D3F8E02002F0DD
:10036C0008020592059AD3F8E02042F04002C3F847
:10037C00E020D3F8E03003F040030693069B012203
:10038C0020214C4800F0DEFEDFF82C8122464FF491
:10039C000071404600F0D6FEDFF8209122464FF463
:1003AC00E061484600F0CEFE0D2307930226089626
:1003BC0009944FF0030BCDF828B00C270B97294666
:1003CC00404600F0AFFD2023079308960994CDF822
:1003DC0028B00B972946484600F0A4FD48F240038C
:1003EC000793089609940A944FF0050ACDF82CA0AF
:1003FC002946484600F096FD4FF4405307931223CC
:10040C00089301270997CDF828B004220B92DFF846
:10041C00B0B02946584600F085FD20230793089775
:10042C0009970A942946234800F07CFD4FF4007389
:10043C000793089709940A942946404600F072FDE8
:10044C004FF4E0630793089709940A9429464846A9
:10045C0000F068FD4FF4E05307934FF444170897EE
:10046C0009942946404600F05DFD04220792089746
:10047C0009942946584600F055FD802307930896A9
:10048C0009940A94CDF82CA02946584600F04AFD50
:10049C004FF400630793089609940A94CDF82CA0A6
:1004AC002946044800F03EFD0DB0BDE8F08F00BFBA
:1004BC000044025800180258000802580000025864
:1004CC00000C025808B50848084B0360042343602D
:1004DC0040F6FF73C360836000F043FE00B908BDB3
:1004EC0000F048F8FBE700BF00010024004800586A
:1004FC00BFF34F8F0549CA6802F4E062044B134303
:10050C00CB60BFF34F8F00BFFDE700BF00ED00E0F5
:10051C000400FA0538B5144B1D685C6872B64FF0D0
:10052C00E02200231361536193610BE00F4A03F146
:10053C0020004FF0FF3142F8201003F1600042F828
:10054C0020100133072BF1D902F0B0F800F072FA49
:10055C00074B054A9A6085F30888BFF34F8FBFF3AA
:10056C006F8F62B6A047FEE70000020800E100E0D2
:10057C0000ED00E008B500222021024800F0E2FD69
:10058C0072B6FEE70018025800B59DB04C2200214F
:10059C0009A806F0ADF92022002101A806F0A8F95F
:1005AC00022002F051F800230093214B9A6922F4A7
:1005BC0040429A619B6903F440430093009B1C4B9F
:1005CC009B6913F4005FFAD0292309934FF480330D
:1005DC000A9301220E920F920223129313931493F7
:1005EC002C2115911692179318930C231993002311
:1005FC001A931B9309A802F03FF9A0B93F2301936A
:10060C0003210291002303930823049340230593B1
:10061C0006934FF480620792089301A802F01AFD2A
:10062C0018B91DB000BDFFF7A5FFFFF7A3FF00BF72
:10063C000048025838B500F06DFAFFF7A5FFFFF738
:10064C003FFE00F02FF800F07DF905F037FDFFF7C5
:10065C0039FF00F099FA0546002411E0FFF748FF36
:10066C0020210E4800F074FD00F08EFA044600F0D4
:10067C008BFA431BB3F57A6F0ED2094800F0A7FD35
:10068C0005F094FE05F046FF0028E7D100F07CFA57
:10069C00031B632BEBD9E3E7FFF73CFF0018025871
:1006AC000001002400B587B000230093019302934E
:1006BC000393049305931848184A0260042242607D
:1006CC008360C36018210161012141618361C361B1
:1006DC00036242624FF080428262C362036308226B
:1006EC0042638363C36300F01DFE70B90123009362
:1006FC0002934FF00113039341F288326946064886
:10070C0000F094FE20B907B000BDFFF733FFEDE712
:10071C00FFF730FFF7E700BF100100240050005234
:10072C002DE9F047B8B0044600213391349135914E
:10073C0036913791B82204A806F0DAF822683F4BBC
:10074C009A4202D038B0BDE8F0874FF00072002317
:10075C00CDE9042304A802F0F1FE00286AD1384B3D
:10076C00D3F8D42042F40012C3F8D420D3F8D42008
:10077C0002F400120092009AD3F8D42042F4804282
:10078C00C3F8D420D3F8D42002F480420192019A09
:10079C00D3F8E02042F01002C3F8E020D3F8E020B8
:1007AC0002F010020292029AD3F8E02042F02002EA
:1007BC00C3F8E020D3F8E03003F020030393039B4D
:1007CC000423339302273497002635960325369558
:1007DC004FF0090ACDF8DCA033ACDFF86880214675
:1007EC00404600F09FFB4FF450733393349735968B
:1007FC0036950A233793DFF850902146484600F08F
:10080C0091FB4FF480633393349735963695CDF83E
:10081C00DCA02146484600F085FB4FF4006333937F
:10082C003497359636950B2337932146404600F086
:10083C0079FB87E7FFF79EFE91E700BF005000525F
:10084C0000440258001002580014025882B0074BA2
:10085C00D3F8F42042F00202C3F8F420D3F8F430B9
:10086C0003F002030193019B02B07047004402584D
:10087C00FEE7FEE7FEE7FEE7FEE7704770477047CE
:10088C0008B500F075F908BD08B5024801F091FBF8
:10089C0008BD00BF182B0024224AD2F8883043F43C
:1008AC007003C2F88830204B1B6803F00F03062B33
:1008BC0006D81D4A136823F00F0343F00703136097
:1008CC001A4B1A6842F001021A6000221A61196868
:1008DC00174A0A401A60144B1B6813F0080F06D015
:1008EC00114A136823F00F0343F0070313600F4BF7
:1008FC0000229A61DA611A620E4999620E49D96234
:10090C000E4919635A639963DA6319645A64196856
:10091C0021F4802119601A66094B43F2D2021A6045
:10092C00704700BF00ED00E0002000520044025868
:10093C007FEDF6EA000202020000FF0180020101D5
:10094C000040005200B589B0002304930593069330
:10095C00079301930293039314484FF08042026073
:10096C0089224260836040F2E732C2600361836196
:10097C0003F0ECFB88B94FF48053049304A90B48A3
:10098C0003F022FC60B900230193039301A90748EB
:10099C0003F0B6FC38B909B000BDFFF7EBFDEAE790
:1009AC00FFF7E8FDEFE7FFF7E5FDF4E76C01002446
:1009BC000368B3F1804F00D0704782B0074BD3F877
:1009CC00E82042F00102C3F8E820D3F8E83003F045
:1009DC0001030193019B02B0704700BF0044025811
:1009EC00DFF834D0FFF758FF0C480D490D4A0023AF
:1009FC0002E0D458C4500433C4188C42F9D30A4AC8
:100A0C000A4C002301E013600432A242FBD305F030
:100A1C0077FFFFF70FFE704700000524000000244D
:100A2C0000010024BC69000800010024FC2F0024F4
:100A3C00FEE7704710B51B4B1B4ADA670024DC67D6
:100A4C001A4AC3F88020C3F88040194AC3F884209E
:100A5C00C3F88440174AC3F88820C3F8884008229A
:100A6C00C3F88C20C3F88C40134AC3F89020C3F809
:100A7C009040124AC3F89420C3F8944002F1755286
:100A8C0002F5B91202F6BD72C3F89820C3F898406B
:100A9C000B4AC3F89C20C3F89C40FFF7CAFF2046C2
:100AAC0010BD00BF004402581150E9002380000221
:100ABC0071020300FF062803FFC3FFEA360100039F
:100ACC00AADE2004104B1B780BB90120704710B51F
:100ADC0004460E4A10684FF47A72B2FBF3F3B0FB83
:100AEC00F3F000F0CFF868B90F2C01D901200AE01F
:100AFC00002221464FF0FF3000F0B0F8044B1C6090
:100B0C00002000E0012010BD080000240400002497
:100B1C000C00002410B5032000F08EF802F09EF9B2
:100B2C000F498B69C3F303230E4AD35C03F01F03F5
:100B3C00D8408B6903F00F03D35C03F01F0320FA3A
:100B4C0003F3094A1360094B18600F20FFF7BAFF33
:100B5C0010B10124204610BD0446FFF777FEF9E7DB
:100B6C00004402586C6900080000002404000024B2
:100B7C00034B1B78034A11680B441360704700BF8A
:100B8C0008000024B8010024014B1868704700BF0E
:100B9C00B801002438B50446FFF7F6FF0546B4F15A
:100BAC00FF3F02D0044B1B781C44FFF7EDFF401BAA
:100BBC00A042FAD338BD00BF08000024002807DB90
:100BCC0000F01F02400901239340024A42F82030F2
:100BDC00704700BF00E100E0002804DB0901C9B246
:100BEC00044B1954704700F00F000901C9B2024BB5
:100BFC001954704700E400E014ED00E000B500F07B
:100C0C000700C0F1070CBCF1040F28BF4FF0040C17
:100C1C00031D062B0ED9C31E4FF0FF3E0EFA0CF02F
:100C2C0021EA000199400EFA03FE22EA0E0241EA83
:100C3C00020000BD0023EFE70649CB6823F4E06314
:100C4C001B041B0C000200F4E0600343024A1A432D
:100C5C00CA60704700ED00E00000FA0510B50446CC
:100C6C00054BD868C0F30220FFF7C8FF01462046A9
:100C7C00FFF7B2FF10BD00BF00ED00E008B5FFF7B5
:100C8C009DFF08BD0138B0F1807F0BD24FF0E023FF
:100C9C005861054AF02182F8231000209861072240
:100CAC001A6170470120704700ED00E00A4BDB68C9
:100CBC0013F0010F0BD0084B084A5A6002F188322E
:100CCC005A60DB6813F0010F03D10020704700203D
:100CDC0070470120704700BF002000522301674578
:100CEC00064BDA6842F00102DA60DB6813F0010FA0
:100CFC0001D0002070470120704700BF0020005237
:100D0C00014B9869704700BFBC01002470B50446C4
:100D1C000D46FFF739FF0646194B1B6913F0040FFC
:100D2C000BD0B4F1FF3FF7D0FFF72EFF801BA04292
:100D3C0021D8002CF0D1032004E0012D03D0012D8B
:100D4C000ED0002070BD0E4B1B690E4A1340F6D01E
:100D5C000D498A691A438A61094A53610120F1E7F6
:100D6C00074B1B6913F4803F07D0054B4FF48032BF
:100D7C005A610020E6E70320E4E70020E2E700BF29
:100D8C00002000520000EE17BC01002438B51F4BA8
:100D9C001B7D012B37D00D4614461C4B01221A75B6
:100DAC0001F17841B1F5801F01D3012038BD00223B
:100DBC009A6101214CF25030FFF7A8FFF8B9144AA0
:100DCC00D36843F00203D360BFF36F8FBFF34F8F31
:100DDC00082354F8042B45F8042B013B13F0FF03B4
:100DEC00F7D1BFF36F8FBFF34F8F01214CF250300F
:100DFC00FFF78CFF064AD36823F00203D360034B42
:100E0C0000221A75D2E70220D0E700BFBC010024F3
:100E1C000020005211F0010F0BD0064BDA6822F0C3
:100E2C003002DA60DA680243DA60DA6842F088028B
:100E3C00DA6070470020005211F0010F0BD0064908
:100E4C00CB6823F4E663CB60CB6842EA0022134301
:100E5C0043F08403CB60704700200052F8B52E4B52
:100E6C001B7D012B56D004460F462B4B01221A75C5
:100E7C0000229A61436813F0010F08D12368012BFB
:100E8C000ED04FF0FF333B60A568002622E0012115
:100E9C004CF25030FFF73AFF0028EFD0012634E037
:100EAC0061682069FFF7B6FF636813F0010F01D189
:100EBC0000262AE001214CF25030FFF727FF0646AE
:100ECC0000B10126154AD36823F00803D3601CE057
:100EDC00D6B90135E368A2681344AB4215D922692F
:100EEC0061682846FFF7A8FF636813F0010FEFD085
:100EFC0001214CF25030FFF709FF0646074AD16832
:100F0C00074B0B40D360E3E73D60034B00221A759F
:100F1C003046F8BD0226FBE7BC010024002000523D
:100F2C00FBF8FFFFF0B583B000236FE085685E002F
:100F3C000324B44025EA0405CC68B4402C438460F7
:100F4C00456825EA0C054C68C4F300149C402C43FE
:100F5C0044606EE08C68012C70D17EE0DD080835B1
:100F6C0050F8254003F0070C4FEA8C0C4FF00F0E95
:100F7C000EFA0CFE24EA0E0E0C6904FA0CF444EA88
:100F8C000E0440F825406EE0092400E0002404FA29
:100F9C000EF42C430CF1020C674D45F82C404FF02D
:100FAC00B0442568D44325EA02064F6817F4801F25
:100FBC0001D042EA05064FF0B0452E606D6804EA98
:100FCC0005064F6817F4001F01D042EA05064FF0E2
:100FDC00B0456E60D5F8845004EA05064F6817F4E6
:100FEC00003F01D042EA05064FF0B045C5F88460D9
:100FFC00D5F880502C404E6816F4803F01D042EA60
:10100C0005044FF0B042C2F8804001330A6832FA4E
:10101C0003F400F08F804FF0010C0CFA03FC1CEA77
:10102C000202F2D04C6804F00304013C012C7FF660
:10103C007DAF4C6804F00304032C8BD0C4684FEADA
:10104C00430E4FF0030C0CFA0EFC24EA0C0C8C68CB
:10105C0004FA0EF444EA0C04C4604C6804F0030473
:10106C00022C3FF47BAF04684FEA430E4FF0030CA5
:10107C000CFA0EFC24EA0C0C4C6804F0030404FA81
:10108C000EF444EA0C0404604C6814F4403FBCD0E9
:10109C002A4CD4F8F45045F00205C4F8F450D4F8B6
:1010AC00F44004F002040194019C4FEA930C0CF1FF
:1010BC000205214C54F8255003F0030E4FEA8E0E16
:1010CC000F2404FA0EF425EA04051D4CA0423FF44B
:1010DC005DAF04F58064A0421ED004F58064A0428C
:1010EC001CD004F58064A0421AD004F58064A042A0
:1010FC0018D004F58064A04216D004F58064A04298
:10110C0014D004F58064A04212D004F50064A0420F
:10111C003FF43AAF0A243AE7012438E7022436E7D1
:10112C00032434E7042432E7052430E706242EE7B1
:10113C0007242CE703B0F0BD00040058004402580B
:10114C00000002580AB1816170470904816170473F
:10115C00436901EA030221EA030141EA0241816188
:10116C007047002831D038B5044603684CF6CC42A1
:10117C001A60036845F255521A60036842685A6057
:10118C00036882689A60FFF7FFFC05462368DA68FB
:10119C0012F0070F0DD0FFF7F7FC401B41F60103CF
:1011AC009842F3D92368DB6813F0070FEED00320C5
:1011BC0005E01969E268914202D01A61002038BD3D
:1011CC004AF6AA221A600020F9E70120704703684A
:1011DC004AF6AA221A60002070470000431EDBB2B8
:1011EC00012B01D901207047002965D010B40023D0
:1011FC000B604B608B60CB600B61022802D000242B
:10120C00002213E02D4B1B6813F0010F01D12C4C65
:10121C00F6E74FF40074F3E7501C40F08070C860A0
:10122C0036E0531C43F080730B610132012A3FD826
:10123C009000244B1B5813F0010F06D084EA0300D6
:10124C0010F0020F01D1501C086013F0100F06D0E3
:10125C0084EA030010F0200F01D1501C486013F4F5
:10126C00807F06D084EA030010F4007F01D1501C6B
:10127C00886013F4803F0BD084EA030010F4802FB5
:10128C0006D113F4003FC7D1501C40F48030C86025
:10129C0013F0807FC9D084EA030010F0806FC4D1B2
:1012AC0013F0007FBDD1531C43F480330B61BCE7BA
:1012BC0000205DF8044B70470120704700B40052C9
:1012CC002202040404B400522DE9F84305460F46EB
:1012DC0016469946DDF820802B681C6A04EA070C38
:1012EC00BCF1000C18BF4FF0010CB44514D0B8F190
:1012FC00FF3FF1D0FFF748FCA0EB0900404502D8B6
:10130C00B8F1000FE8D14FF400732B656B6D43F00F
:10131C0001036B65012000E00020BDE8F8838165C6
:10132C000020704730B583B00446FFF72DFC002C2D
:10133C0077D0054600236365236D13B1002003B0FD
:10134C0030BD2046FFF7ECF941F288312046FFF71B
:10135C00E6FF20688268344B1340E268216901394A
:10136C0042EA01426169013942EA0122616B0A4396
:10137C00E1690A43134383602268D36823F4E023B2
:10138C00216A0B43D360216BA36B226843EA0143B0
:10139C0013612368E26B5A6121680B6823F4F853DC
:1013AC006268013A43EA02230B60A36D00932B465B
:1013BC00002220212046FFF787FF0028BFD121689B
:1013CC00CB6823F0FF03626A013A1343CB602268B7
:1013DC00136823F04003A1680B4313602168D1F814
:1013EC00083123F0A043A26AE56A2A431343C1F8EB
:1013FC0008312268136843F001031360A369022BC0
:10140C0006D0E368B3F1806F08D00223236596E71A
:10141C002268936843F002039360F2E7012323658B
:10142C008DE701208BE700BFF4F8E0F82DE9F043DD
:10143C008DB081460D4602688D4B9A4205D04FF017
:10144C000008012600231F4604E04FF00108002687
:10145C00F8E72346012B0FD85C1CE4B203EB4303E3
:10146C000DEBC3012046FFF7B9FE0028F1D008238D
:10147C00C9F854300127ECE7002F40F0B2817C4BC7
:10148C001B6813F0010F67D0794A136823F001032E
:10149C0013600122774B1B6813F0010F07D07549BD
:1014AC000B6823F001030B6042F00202D2B206EB90
:1014BC0046030CA901EBC30353F8283C013B6E48CF
:1014CC0000EB8303596821F480715960036813F0B1
:1014DC00010F00F08480036823F001030360B8F16E
:1014EC00000F3BD1D5F800E0434608EB48010CA8AF
:1014FC0000EBC10151F8301C8E4500F0C28008EBA6
:10150C00480C00EBCC0C5CF8280CAC68844200F066
:10151C00B88068685CF82CCC604500F0AF80D5F8DA
:10152C000CC003EB43000CAC04EBC00050F8240CD3
:10153C00844500F05A81D5F810C003EB43000CAC85
:10154C0004EBC00050F8200C844540F0E380BCF163
:10155C00000F00F0DF8094E03A469BE7434608EB2F
:10156C0048000CA901EBC00050F8301C013989006F
:10157C00414C0C44616841F00201616050F82C1C34
:10158C0039B1013989003C480844416841F02001D7
:10159C00416003EB43010CA800EBC10151F8241C82
:1015AC0049B1013901F0010189003348084441680F
:1015BC0041F48021416003EB43030CA901EBC3030D
:1015CC0053F8203C002B8DD0013B03F001039B0012
:1015DC00294919444B6843F080634B6082E706EB62
:1015EC0046030CA901EBC30353F8303C002B3FF42A
:1015FC0079AF013B9B00204919444B6823F0010350
:10160C004B6006EB46030CA901EBC30353F82C3CCF
:10161C003BB1013B9B00184919444B6823F0100364
:10162C004B6006EB46030CA901EBC30353F8243CB7
:10163C004BB1013B03F001039B000F4919444B686C
:10164C0023F480334B6006EB46030CA901EBC30378
:10165C0053F8203C002B3FF445AF013B03F0010352
:10166C009B00054919444B6823F080734B6039E7A4
:10167C000050005200A0005200B4005200283FF469
:10168C004EAF8E4500F0B68001398900AD48084454
:10169C00416821F00101416003EB43010CA800EB10
:1016AC00C10151F82C1C39B101398900A5480844F5
:1016BC00416821F01001416003EB43000CA901EBE0
:1016CC00C00050F8281C013989009E4C0C446168FC
:1016DC0021F48071616050F8241C49B1013901F08A
:1016EC000101890097480844416821F48031416028
:1016FC0003EB43030CA901EBC30353F8203C4BB1A0
:10170C00013B03F001039B008E4919444B6823F005
:10171C0080734B60A96801398A4800EB81014B68E2
:10172C0023F4407343EA462343F480734B606B69A4
:10173C00013B0168C1F307418B4205D9016821F4D3
:10174C007F0141EA034303607E4B1B6813F0010FDA
:10175C0000F094802B68013B9B007A4919444B683C
:10176C0023F0030343F001034B606B684BB1013B67
:10177C009B00744919444B6823F0300343F0100369
:10178C004B60EB6813F4803F5AD0013B03F001032C
:10179C009B006C4919444B6823F4E02343F48033D9
:1017AC004B602B6913F4803F59D0013B03F00103CC
:1017BC009B00644919444B6823F4E02343F4403301
:1017CC004B6012F0010F04D05F490B6843F001032A
:1017DC000B6012F0020F04D05C4A136843F0010353
:1017EC00136038460DB0BDE8F083BCF1000F7FF4F8
:1017FC0048AFA0E66C6803EB43000DF1300C0CEB2A
:10180C00C00050F82C0C84427FF43EAFEC6803EB24
:10181C0043000CEBC00050F8240C84427FF434AF2E
:10182C002C6903EB43000CEBC00050F8200C8442F5
:10183C007FF42AAF43490B6843F001030B6069E75F
:10184C00002BAED0013B03F001039B003D49194432
:10185C004B6823F0E06343F080734B60A1E7002BEF
:10186C00AFD0013B03F001039B00364919444B6890
:10187C0023F0E06343F040734B60A2E72B68013B1D
:10188C009B00304919444B6823F0030343EA460399
:10189C0043F001034B606B685BB1013B9B00294932
:1018AC0019444B6823F0300343EA461343F010030A
:1018BC004B60EB6813F4803F20D0013B03F0010335
:1018CC009B00204919444B6823F4E02343EA8643E8
:1018DC0043F480334B602B6913F4803F1FD0013BE2
:1018EC0003F001039B00174919444B6823F4E023D0
:1018FC0043EA864343F440334B6062E7002BEAD063
:10190C00013B03F001039B000E4919444B6823F083
:10191C00E06343EA866343F080734B60DBE7002BA4
:10192C003FF44FAF013B03F001039B000549194401
:10193C004B6823F0E06343EA866343F040734B60EB
:10194C003FE700BF00B400520050005200A000520C
:10195C002DE9F04383B0D0F8008001EBC10300EB1C
:10196C0083039A6A5B6A9A4254D807460C469B1AC0
:10197C0001EBC10200EB8202D2699A4200D31A46F3
:10198C0002F103094FEA990915E006F103094FEA40
:10199C00990904EBC40507EB8505296ABB7900930B
:1019AC00B3B2E2B2404603F0E1F82B6A33442B6247
:1019BC00AB6A3344AB6208EB441303F510639B69C9
:1019CC009BB24B4512D304EBC40307EB83039A6A17
:1019DC005B6A9A420AD24BB19B1A04EBC40207EB26
:1019EC008202D6699E42D0D31E46CEE704EBC403D6
:1019FC0007EB83077A6ABB6A9A420FD804F00F048C
:101A0C000122A240D8F8343823EA0203C8F834384B
:101A1C00002000E0012003B0BDE8F0830020FAE7CD
:101A2C0030B583B000287AD0044690F89534ABB129
:101A3C00032384F89534206802F0B4FD237C8DF8E0
:101A4C000030231D0ECB206802F0DEFC58B10223BF
:101A5C0084F895340125284603B030BD80F89434C1
:101A6C0004F0F6FDE4E70021206803F03BFA02469F
:101A7C00B8B903462079984218D903EBC30104EB9B
:101A8C008101012048750B75CB8500200876C86153
:101A9C00086203EBC30104EB810148620133DBB242
:101AAC00E8E7022384F895340125D4E7904217D94E
:101ABC0002EBC20304EB8303002183F8551283F875
:101ACC00542283F85812C3F85C12C3F8601202EB6C
:101ADC00C20304EB8303C3F864120132D2B2E5E70C
:101AEC00237C8DF80030231D0ECB206802F0B0FD56
:101AFC00054658B900236374012384F89534237B7D
:101B0C00012B08D0206803F0ACF9A4E7022384F879
:101B1C00953401259FE7204600F080FDF2E7012572
:101B2C0099E7036890F89424012A1AD010B504465A
:101B3C00012280F89424DA6812F0400F02D0427B24
:101B4C00012A09D0206802F027FD206803F07BF9F8
:101B5C00002084F8940410BD9A6B42F480329A638E
:101B6C00F0E702207047000070B504460D4600688F
:101B7C00066C00EB411303F530639A68A1790129D7
:101B8C0011D038498E4256D03DB905EBC50304EB54
:101B9C008303D3F86432002B5ED0E9B2204604F004
:101BAC0099FD002070BD12F0080F09D02E498E420D
:101BBC00F7D912F4004FF4D04FF400429A60F0E7DA
:101BCC0012F0200F02D020229A60EAE712F0280FC0
:101BDC00E7D125498E4206D912F4004F03D04FF4B9
:101BEC0000429A60DDE705EBC50204EB8202D2F8F5
:101BFC0074121B69C3F31203CB1AC2F868327DB995
:101C0C0005EBC50204EB8202D2F864226AB105EB43
:101C1C00C50204EB8202D2F860121944C2F86012B9
:101C2C00E9B2204604F056FDBBE704F29C420121C8
:101C3C0003F098F9F4E712F4004F03D04FF400428C
:101C4C009A60AEE712F0200F01D020229A60E9B220
:101C5C00204604F03FFDA4E704F29C42002103F06F
:101C6C0081F99AE70A31544F0A30544F38B504467B
:101C7C0003681D6C03EB4113D3F8081B0E4A954205
:101C8C0007D903F5306311F4004F02D04FF4004232
:101C9C009A60204604F016FD074B9D4202D9A379A9
:101CAC00012B01D0002038BD04F29C420121206898
:101CBC0003F058F9F6E700BF0A30544F90F894340B
:101CCC00012B0CD010B50446012380F894344174D8
:101CDC00006803F0A8F8002084F8940410BD0220DA
:101CEC00704738B505468C4611F0800F2BD101F0AA
:101CFC000F0E0EEBCE04A40004F514740444211D45
:101D0C000EEBCE0E00EB8E0E00208EF855020CF072
:101D1C000F0C81F800C0C2F30A028A600B714A787A
:101D2C000AB1A1F81AC0022B1CD095F89434012BDF
:101D3C001BD0012385F89434286802F063FD002041
:101D4C0085F8940438BD01F00F0000EBC001890048
:101D5C0010312944043100EBC00005EB8000012454
:101D6C004475D4E700234B71DFE70220EAE710B596
:101D7C0004460A4611F0800F20D101F00F0000EB51
:101D8C00C0039B0003F514732344191D00EBC00022
:101D9C0004EB8000002380F8553202F00F020A7029
:101DAC0094F89434012B18D0012384F894342068CF
:101DBC0002F074FD002084F8940410BD01F00F00B3
:101DCC0000EBC0039B0010332344191D00EBC00033
:101DDC0004EB800001234375DFE70220EDE710B52B
:101DEC00144601F00F0C0CEBCC01890001F51471B9
:101DFC00014404310CEBCC0E00EB8E0ECEF86022BD
:101E0C00CEF864320023CEF868328EF855328EF854
:101E1C0054C28279012A04D0006802F0BFFE00206F
:101E2C0010BDCEF87042F7E701F00F0101EBC101D4
:101E3C0000EB8100D0F86802704710B5144601F031
:101E4C000F0C0CEBCC0189001031014404310CEB6C
:101E5C00CC0E00EB8E0ECEF82020CEF824300023D2
:101E6C00CEF8283001238EF815308EF814C0827904
:101E7C009A4204D0006802F091FE002010BDCEF80A
:101E8C003040F7E738B501F00F050279AA4238D394
:101E9C0004460B4611F0800F1FD101EBC1018900E4
:101EAC0001F514710144043103EBC30300EB83030C
:101EBC00002283F8552201238B700D7094F8943412
:101ECC00012B20D0012384F89434206802F0F3FD18
:101EDC0085B1002084F8940438BD05EBC501890058
:101EEC0010310144043105EBC50300EB83030122DF
:101EFC005A75E0E704F29C42A179206803F032F8AD
:101F0C00E7E70120E8E70220E6E701F00F0302799A
:101F1C009A4230D310B5044611F0800F1ED103EB5A
:101F2C00C301890001F514710144043103EBC302B0
:101F3C0000EB8202002082F8550200228A700B709E
:101F4C0094F89434012B18D0012384F8943420682D
:101F5C0002F0DEFD002084F8940410BD03EBC301F5
:101F6C00890010310144043103EBC30200EB8202FF
:101F7C0001205075E1E7012070470220EDE708B51C
:101F8C0011F0800F0CD101F00F0101EBC1018900A0
:101F9C0001F5147101440431006802F0EFFC08BD36
:101FAC0001F00F0101EBC101890010310144043132
:101FBC00F2E72DE9F04F83B004460568284602F09D
:101FCC008DFF10B103B0BDE8F08F0646206802F01B
:101FDC0056FF0028F6D005F50067BB68C3F30D2348
:101FEC00C4F8D434206802F04AFF10F0020F04D079
:101FFC002268536903F002035361206802F03FFF2B
:10200C0010F0100F16D02268936923F0100393611F
:10201C00D5F8208008F00F0908F4F013B3F5802FE1
:10202C006AD0B3F5402F00F08D802268936943F09D
:10203C0010039361206802F022FF10F4002F40F08F
:10204C009380206802F01BFF10F4802F40F0FC807E
:10205C00206802F014FF0028C0F27D81206802F095
:10206C000EFF10F4006F09D0BB6813F0010F40F0A5
:10207C008A812268536903F400635361206802F07B
:10208C00FEFE10F0006F15D02268536903F0006358
:10209C00536194F8CC34002B40F07981012184F801
:1020AC00CC1423685B6DC3F38303C4F8D03420468F
:1020BC0000F0C8FA206802F0E2FE10F4805F40F0F5
:1020CC006A81206802F0DBFE10F4005F40F0B681FC
:1020DC00206802F0D4FE10F0080F40F0C781206891
:1020EC0002F0CDFE10F0800F00F0E481AB6923F01C
:1020FC008003AB610123C3E147F6F07318EA030FC9
:10210C0093D04FEA181A4FEAC903019309EBC90B94
:10211C0004EB8B0BC8F30A12DBF86012284602F0B2
:10212C005FFEDBF86032CAF30A0A5344CBF8603224
:10213C00DBF86832019A4A4404EB82025344C2F839
:10214C00683272E7082204F29C41284602F048FEED
:10215C0009EBC90304EB8303D3F86822C8F30A180C
:10216C004244C3F8682260E7206802F08CFE804687
:10217C00B14635E005EB49130122C3F8082B49465B
:10218C002046FFF7F1FC3CE005EB49130822C3F8AD
:10219C00082B49462046FFF769FD35E009EBC903DA
:1021AC0004EB830393F85732012B41D005EB491311
:1021BC000222C3F8082B1AF0200F04D005EB4913A8
:1021CC002022C3F8082B1AF4005F05D005EB491345
:1021DC004FF40052C3F8082B09F101094FEA5808D3
:1021EC00B8F1000F3FF42DAF18F0010FF4D05FFAE7
:1021FC0089FB5946206802F056FE824610F0010F0A
:10220C00B8D11AF0080FBFD11AF0100F04D005EB9B
:10221C0049131022C3F8082B1AF0020FCBD06B69AC
:10222C0013F0800FBAD07B6843F480637B60B5E712
:10223C0009EBC90304EB8303002283F857225946A8
:10224C00204604F097FAB1E7206802F024FE80469D
:10225C00B14625E05946204604F048FA1AF0080F1A
:10226C0004D005EB49130822C3F808291AF0100F03
:10227C0004D005EB49131022C3F808291AF0400FBB
:10228C0004D005EB49134022C3F808291AF0020FB9
:10229C0040D11AF0800F59D109F101094FEA5808C1
:1022AC00B8F1000F3FF4D4AE18F0010FF4D05FFA80
:1022BC0089FB5946206802F0FFFD824610F0010FA1
:1022CC00CCD009F00F02012101FA02F27B6B23EA58
:1022DC0002037B6305EB4913C3F80819A3798B42FE
:1022EC00B8D109EBC90304EB83031A6AD9690A4410
:1022FC001A62B9F1000FADD109EBC90304EB8303EA
:10230C005B6A002BA6D104F29C420121206802F0EA
:10231C0029FE9FE74946284602F04AF909EBC90312
:10232C0004EB8303DB7D012B05D005EB4913022263
:10233C00C3F80829ADE709EBC90304EB83030022BA
:10234C00DA755946204604F01BFAEEE7494620465A
:10235C00FFF7FEFAA0E77B6823F001037B6094F89B
:10236C00CC34012B08D0204604F0FEF922685369C6
:10237C0003F00043536171E6002184F8CC1420462D
:10238C0000F060F9F2E7204604F0D6F971E6204639
:10239C0004F0D2F98EE67B6823F001037B601021F8
:1023AC00206802F005F91AE005EB46134FF67F3171
:1023BC00C3F80819D3F8002922F40012C3F8002935
:1023CC00C3F8081BD3F8002B22F40012C3F8002B1F
:1023DC00D3F8002B42F00062C3F8002B01362379AE
:1023EC00B342E1D8FB6943F00113FB61E37BDBB142
:1023FC00D7F8843043F00B03C7F884307B6C43F080
:10240C000B037B64D5F8003823F4FE63C5F8003861
:10241C0004F29C42A179206802F0A4FD2268536961
:10242C0003F4805353614CE67A6942F22B03134355
:10243C007B613B6943F00B033B61E3E7206802F0EF
:10244C0082FD206802F0CCF9E071266800F04CFFA8
:10245C000146E279304602F02DF8204604F057F997
:10246C002268536903F40053536131E6204604F0AB
:10247C0048F92268536903F0080353612FE60133CE
:10248C0022799A4216D903EBC30204EB820292F82A
:10249C005722012AF3D105EB4312D2F8001B41F06D
:1024AC000061C2F8001BD2F8001B41F08041C2F859
:1024BC00001BE4E7206802F0E2FC10F4801F25D139
:1024CC00206802F0DCFC10F4001F58D0012326E039
:1024DC0001362379B3421BD905EB4613D3F80029F7
:1024EC0006EBC60304EB83031B7E012BF0D1002A01
:1024FC00EEDA06EBC60304EB83030122DA7566F011
:10250C007F01C9B22046FFF73AFDE1E70126E0E77B
:10251C002268536903F480135361D1E701332279A4
:10252C009A4227D905EB4312D2F8001B03EBC302E6
:10253C0004EB820292F85822012AEFD10029EDDA3D
:10254C00D4F8D42482EA114212F0010FE6D103EB45
:10255C00C30204EB8202012182F85712AA6942F0ED
:10256C008002AA616A6912F0800FD7D17B6843F4AC
:10257C0000737B602268536903F400135361206875
:10258C0002F07DFC10F0804F10D1206802F077FC37
:10259C0010F0040F3FF416AD23685D6815F0040FBE
:1025AC000DD1226853682B4353600BE5204604F091
:1025BC00EDF82268536903F080435361E5E7204648
:1025CC0004F0EAF8EDE710B40468606A31B940EA47
:1025DC000240A06200205DF8044B70478C46A36A51
:1025EC0000EB1340002308E003F1400104EB8101F0
:1025FC00496800EB11400133DBB20CF1FF318B4227
:10260C00F2D340EA02400CF13F0104EB810460601C
:10261C00E0E7036859620020704700000346026837
:10262C000121C0F8D814002083F8CC04936943F03E
:10263C0000639361516D024B0B435365704700BFB0
:10264C000300001070470000134BDB6813F0040FFD
:10265C0007D1114BDB6803F0070383421AD001202A
:10266C00704710B50C4AD36823F007030343D360BB
:10267C00FEF78AFA0446084B5B6813F4005F07D137
:10268C00FEF782FA001BB0F57A7FF4D9012000E046
:10269C00002010BD0020704700480258024AD36841
:1026AC0043F08073D36070470048025838B5684BCC
:1026BC001B6803F00F03062B0CD8654A136823F034
:1026CC000F0343F007031360136803F00F03072B8A
:1026DC0040F0BA80FEF758FA04465E4A136843F09D
:1026EC00010313605B4B1B6813F0040F06D1FEF75C
:1026FC004BFA001B0228F5D90324A6E0554B5A6867
:10270C0042F080425A6000221A61534B534A1360C4
:10271C00534A1360534B1868FEF7D4F9044608B1BA
:10272C00012492E0FEF730FA05464A4B1B6913F080
:10273C00380F08D0FEF728FA401B41F28833984234
:10274C00F3D9032481E0FEF71FFA0546414A1168CC
:10275C00454B0B4013603F4B1B6813F4003F06D0F6
:10276C00FEF712FA401B6428F5D903246DE0FEF73E
:10277C000BFA0546374A136823F080731360354B08
:10278C001B6813F0007F06D0FEF7FEF9401B0228F1
:10279C00F5D9032459E0FEF7F7F905462D4A1368DD
:1027AC0023F0806313602B4B1B6813F0006F06D073
:1027BC00FEF7EAF9401B0228F5D9032445E0FEF7A1
:1027CC00E3F90546234A136823F080531360214B29
:1027DC001B6813F0005F06D0FEF7D6F9401B0228E9
:1027EC00F5D9032431E01B4B00229A61DA611A629D
:1027FC001E4999621E49D9621E4919635A6399632D
:10280C00DA6319645A64196821F4802119601A6614
:10281C004FF0FF329A66D3F8D02042F48032C3F8DE
:10282C00D0200B4B1B6813F0080F0ED0084A13680E
:10283C0023F00F0343F007031360136803F00F0337
:10284C00072B02D0012400E00124204638BD00BF34
:10285C0000200052004402580090D00304000024D1
:10286C00000000240C00002445EDF6FF00020202DB
:10287C000000FF0180020101002800F0D58238B56C
:10288C000446036813F0010F25D0A04A136903F026
:10289C003803926A102B15D0182B0FD06368B3F540
:1028AC00803F3FD0002B53D1984B1A6822F48032D2
:1028BC001A601A6822F480221A6038E002F00302CF
:1028CC00022AEBD1914B1B6813F4003F03D06368D1
:1028DC00002B00F0AB82236813F0020F00F088800D
:1028EC008A4A1369926A13F038035AD0182B55D0C0
:1028FC00E368002B00F0A98084490A6822F01902D1
:10290C0013430B60FEF740F90546804B1B6813F030
:10291C00040F40F09180FEF737F9401B0228F4D9E0
:10292C0003208AE2794A136843F4803313606368A6
:10293C002BB3FEF729F90546744B1B6813F4003FC3
:10294C00C9D1FEF721F9401B6428F5D9032074E2A4
:10295C00B3F5A02F09D06D4B1A6822F480321A609F
:10296C001A6822F480221A60E1E7684B1A6842F474
:10297C0080221A601A6842F480321A60D7E7FEF798
:10298C0003F90546614B1B6813F4003FA3D0FEF717
:10299C00FBF8401B6428F5D903204EE212F0030F1C
:1029AC00A6D15A4B1B6813F0040F03D0E368002B1D
:1029BC0000F03E82554A136823F01903E1680B437B
:1029CC001360FEF7E1F80546504B1B6813F0040F3B
:1029DC0006D1FEF7D9F8401B0228F5D903202CE2CA
:1029EC004A4A536823F0FE43216943EA016353606A
:1029FC00236813F0100F51D0444A136903F03803C5
:102A0C00926A082B39D0182B33D0E369002B69D08C
:102A1C003E4A136843F080031360FEF7B5F8054691
:102A2C003A4B1B6813F4807F53D1FEF7ADF8401B73
:102A3C000228F5D9032000E2344A536823F0FE4300
:102A4C00216943EA01635360D2E7304A136823F0EB
:102A5C0001031360FEF798F805462C4B1B6813F026
:102A6C00040FC5D0FEF790F8401B0228F5D90320BF
:102A7C00E3E102F00302012AC7D1244B1B6813F4D3
:102A8C00807F03D0E369802B40F0D4811F4AD36848
:102A9C0023F07C53216A43EA0163D360236813F06B
:102AAC00080F49D06369002B32D0184A536F43F09A
:102ABC0001035367FEF768F80546144B5B6F13F080
:102ACC00020F39D1FEF760F8401B0228F5D903201C
:102ADC00B3E10E4AD36823F07C53216A43EA0163C5
:102AEC00D360DBE7094A136823F080031360FEF719
:102AFC004BF80546054B1B6813F4807FCED0FEF7D0
:102B0C0043F8401B0228F5D9032096E100440258F3
:102B1C009D4A536F23F001035367FEF735F80546C2
:102B2C00994B5B6F13F0020F06D0FEF72DF8401B8C
:102B3C000228F5D9032080E1236813F0200F29D057
:102B4C00A3699BB1904A136843F480531360FEF75A
:102B5C001BF805468C4B1B6813F4005F1AD1FEF76B
:102B6C0013F8401B0228F5D9032066E1864A136846
:102B7C0023F480531360FEF707F80546824B1B685D
:102B8C0013F4005F06D0FDF7FFFF401B0228F5D9B8
:102B9C00032052E1236813F0040F21D1636A002B48
:102BAC0000F04A81784A126902F03802182A00F0C3
:102BBC00F180022B75D0744A136823F08073136074
:102BCC00FDF7E2FF0446704B1B6813F0007F00F02A
:102BDC00D880FDF7D9FF001B0228F4D903202CE183
:102BEC006A4A136843F480731360FDF7CDFF054602
:102BFC00664B1B6813F4807F06D1FDF7C5FF401BA5
:102C0C006428F5D9032018E1A368012B0AD00BBB6B
:102C1C005D4B1A6F22F001021A671A6F22F0040240
:102C2C001A6704E0584A136F43F001031367A36853
:102C3C0033B3FDF7A9FF0546534B1B6F13F0020F7F
:102C4C00ACD1FDF7A1FF401B41F288339842F3D978
:102C5C000320F2E0052B09D04B4B1A6F22F0010236
:102C6C001A671A6F22F004021A67E0E7464B1A6FD4
:102C7C0042F004021A671A6F42F001021A67D6E793
:102C8C00FDF782FF0546404B1B6F13F0020F85D0FA
:102C9C00FDF77AFF401B41F288339842F3D90320A9
:102CAC00CBE0394A136823F080731360FDF76CFF97
:102CBC000546354B1B6813F0007F06D0FDF764FF0B
:102CCC00401B0228F5D90320B7E02F4B996A304AF4
:102CDC000A40A16AE06A41EA00110A439A62226B37
:102CEC00013AC2F30802616B0139490289B20A4305
:102CFC00A16B0139090401F4FE010A43E16B0139AE
:102D0C00090601F0FE410A431A63DA6A22F0010255
:102D1C00DA625A6B6FF3CF02A16C42EAC1025A63BA
:102D2C00DA6A22F00C02216C0A43DA62DA6A22F0C7
:102D3C000202616C0A43DA62DA6A42F48032DA62C5
:102D4C00DA6A42F40032DA62DA6A42F48022DA6237
:102D5C00DA6A42F00102DA621A6842F080721A6092
:102D6C00FDF712FF0446084B1B6813F0007F06D1D9
:102D7C00FDF70AFF001B0228F5D903205DE00020B7
:102D8C005BE0002059E000BF0044025800480258A4
:102D9C000CFCFFFF30498A6A086B012B4ED002F005
:102DAC000303A16A8B424BD1C2F30512E36A9A4228
:102DBC0048D1C0F30802236B013B9A4244D1C0F3C3
:102DCC004622636B013B9A4240D1C0F30642A36B8F
:102DDC00013B9A423CD1C0F30660E36B013B984245
:102DEC0038D11D4B5B6BC3F3CC03A26C9A4201D15F
:102DFC00002022E0184AD36A23F00103D362FDF7C6
:102E0C00C3FE0546FDF7C0FEA842FBD0124A536B29
:102E1C006FF3CF03A16C43EAC1035363D36A43F04E
:102E2C000103D362002008E001207047012004E078
:102E3C00012002E0012000E0002038BD0120FCE769
:102E4C000120FAE70120F8E70120F6E70120F4E77A
:102E5C000120F2E70120F0E700440258754B1B6992
:102E6C0003F03803102B00F0DE80182B0FD0002B52
:102E7C0040F0DB806F4B1B6813F0200F00F0D78005
:102E8C006C4B1B68C3F3C1036B48D840704710B43C
:102E9C00684B9A6A02F003029C6AC4F30510D96A63
:102EAC0001F001015B6BC3F3CC0301FB03F307EEF1
:102EBC00903AF8EE677A14F47C7F77D0012A4AD0E6
:102ECC00022A76D0002A40F091805A4B1B6813F0EE
:102EDC00200F23D057490A68C2F3C102564BD34086
:102EEC0007EE103AF8EE476A07EE100AB8EE476A9A
:102EFC0086EE867A0B6BC3F3080306EE903AF8EE77
:102F0C00666A9FED4E6A67EE867A76EEA77AF7EEE2
:102F1C00006A77EEA67A27EE277A38E007EE100AD9
:102F2C00F8EE476A9FED466A86EE267A414B1B6B9C
:102F3C00C3F3080306EE903AF8EE666A9FED3F6A1B
:102F4C0067EE867A76EEA77AF7EE006A77EEA67AC7
:102F5C0027EE277A1BE007EE100AF8EE476A9FED82
:102F6C00396A86EE267A334B1B6BC3F3080306EEE5
:102F7C00903AF8EE666A9FED316A67EE867A76EEE5
:102F8C00A77AF7EE006A77EEA67A27EE277A294B16
:102F9C001B6BC3F34623013307EE903AF8EE677AC6
:102FAC00C7EE276AFCEEE67A17EE900A5DF8044B42
:102FBC00704707EE100AF8EE476A9FED236A86EE1B
:102FCC00267A1C4B1B6BC3F3080306EE903AF8EE03
:102FDC00666A9FED1A6A67EE867A76EEA77AF7EE46
:102FEC00006A77EEA67A27EE277AD0E707EE100A6A
:102FFC00F8EE476A9FED136A86EE267A0D4B1B6B33
:10300C00C3F3080306EE903AF8EE666A9FED0B6A7E
:10301C0067EE867A76EEA77AF7EE006A77EEA67AF6
:10302C0027EE277AB3E709487047094870470248EA
:10303C00704700BF004402580090D00300000039D4
:10304C000024744C0024744A20BCBE4B40787D0193
:10305C0000093D00002800F0328170B50D46044691
:10306C009B4B1B6803F00F038B420BD2984A1368DF
:10307C0023F00F030B431360136803F00F038B4211
:10308C0040F01F81236813F0040F0CD02269914B80
:10309C009B6903F070039A4205D98E498B6923F022
:1030AC0070031A438A61236813F0080F0CD062690D
:1030BC00884BDB6903F070039A4205D98549CB69CB
:1030CC0023F070031A43CA61236813F0100F0CD05D
:1030DC00A269804BDB6903F4E0639A4205D97D4910
:1030EC00CB6923F4E0631A43CA61236813F0200F01
:1030FC000CD0E269774B1B6A03F070039A4205D936
:10310C0074490B6A23F070031A430A62236813F0A4
:10311C00020F0CD0E2686F4B9B6903F00F039A42CD
:10312C0005D96C498B6923F00F031A438A61236814
:10313C0013F0010F41D0674A936923F47063A168BF
:10314C000B4393616368022B0AD0032B27D0012B0E
:10315C002CD0604A126812F0040F06D10120ADE0A9
:10316C00126812F4003F00F0AE805A490A6922F04E
:10317C00070213430B61FDF707FD0646554B1B6910
:10318C0003F038036268B3EBC20F16D0FDF7FCFCFA
:10319C00801B41F288339842F0D903208EE04D4ACF
:1031AC00126812F0007FE0D1012087E0494A1268D2
:1031BC0012F4807FD9D1012080E0236813F0020F34
:1031CC000CD0E268434B9B6903F00F039A4205D283
:1031DC0040498B6923F00F031A438A613C4B1B68EF
:1031EC0003F00F03AB420AD9394A136823F00F03DB
:1031FC002B431360136803F00F03AB4265D12368B4
:10320C0013F0040F0CD02269324B9B6903F070034E
:10321C009A4205D22F498B6923F070031A438A61B5
:10322C00236813F0080F0CD062692A4BDB6903F09A
:10323C0070039A4205D22749CB6923F070031A43D5
:10324C00CA61236813F0100F0CD0A269214BDB6903
:10325C0003F4E0639A4205D21E49CB6923F4E06380
:10326C001A43CA61236813F0200F0CD0E269194B82
:10327C001B6A03F070039A4205D216490B6A23F0BD
:10328C0070031A430A62FFF7E9FD12498B69C3F315
:10329C000323114AD35C03F01F03D8408B6903F05E
:1032AC000F03D35C03F01F0320FA03F30B4A1360E4
:1032BC000B4B18600B4B1868FDF704FC70BD01201C
:1032CC0070470120FAE70120F8E70120F6E700BF7C
:1032DC0000200052004402586C69000800000024D1
:1032EC00040000240C00002408B5FFF7B7FD0B4ABE
:1032FC009369C3F303230A49CB5C03F01F0320FA41
:10330C0003F3926902F00F02885C00F01F0023FAAD
:10331C0000F0044A1060044A136008BD00440258CF
:10332C006C6900080000002404000024404B9B6AD8
:10333C0003F00303032B79D070B505460E463C4AC7
:10334C00136823F080631360FDF71EFC0446384BB2
:10335C001B6813F0006F06D0FDF716FC031B022B45
:10336C00F5D9032070BD324B9A6A22F47C3229685D
:10337C0042EA01329A626A68013AC2F30802A96809
:10338C000139490289B20A43E9680139090401F497
:10339C00FE010A4329690139090601F0FE410A437D
:1033AC009A63DA6A22F0C00269690A43DA62DA6A5D
:1033BC0022F02002A9690A43DA62DA6A22F01002CA
:1033CC00DA62DA6B6FF3CF02E96942EAC102DA63BF
:1033DC00DA6A42F01002DA62C6B91A46DB6A43F4C2
:1033EC000023D362124A136843F080631360FDF725
:1033FC00CBFB04460E4B1B6813F0006F14D1FDF78A
:10340C00C3FB001B0228F5D90320ABE7012E05D026
:10341C00074AD36A43F40013D362E3E7044AD36A3E
:10342C0043F48013D362DDE700209BE70120704753
:10343C0000440258404B9B6A03F00303032B79D0E2
:10344C0070B505460E463C4A136823F08053136052
:10345C00FDF79AFB0446384B1B6813F0005F06D04F
:10346C00FDF792FB031B022BF5D9032070BD324BE9
:10347C009A6A22F07C72296842EA01529A626A685E
:10348C00013AC2F30802A9680139490289B20A4318
:10349C00E9680139090401F4FE010A43296901397B
:1034AC00090601F0FE410A431A64DA6A22F440620A
:1034BC0069690A43DA62DA6A22F40072A9690A437A
:1034CC00DA62DA6A22F48072DA625A6C6FF3CF0233
:1034DC00E96942EAC1025A64DA6A42F48072DA6239
:1034EC00C6B91A46DB6A43F48003D362124A1368E6
:1034FC0043F080531360FDF747FB04460E4B1B68EB
:10350C0013F0005F14D1FDF73FFB001B0228F5D927
:10351C000320ABE7012E05D0074AD36A43F0807332
:10352C00D362E3E7044AD36A43F40003D362DDE7D2
:10353C0000209BE70120704700440258F8B5044670
:10354C00036813F0006F30D0436EB3F5001F26D024
:10355C000ED8ABB1B3F5801F07D102210830FFF7AD
:10356C00E5FE054695B12E4621E0012635461EE0C6
:10357C00B3F5401F01D1002508E00126354616E0C1
:10358C009B4AD36A43F40033D3620025984A136DE7
:10359C0023F44013616E0B431365002607E00221F0
:1035AC002830FFF747FF0546DCE700263546236841
:1035BC0013F4807F14D0A36D042B34D8DFE803F010
:1035CC0003252C0808008A4AD36A43F40033D362DB
:1035DC0065BB874A136D23F00703A16D0B4313657D
:1035EC00236813F4806F47D0D4F8A430B3F5800F60
:1035FC0033D020D85BB3B3F5001F19D1002104F1EF
:10360C000800FFF793FE05462DE0002104F10800A9
:10361C00FFF78CFE0546DBE7002104F12800FFF7DD
:10362C0009FF0546D4E701263546D9E72E46D7E7EC
:10363C000126354620E0B3F5000F14D0B3F5200F6A
:10364C0011D0B3F5C00F0ED00126354614E0684AF0
:10365C00D36A43F40033D36205E0002104F128005F
:10366C00FFF7E8FE0546E5B9614A936D23F4600364
:10367C00D4F8A4100B439365236813F4006F36D071
:10368C00D4F8A830B3F1007F22D00FD8D3B1B3F166
:10369C00807F08D1002104F10800FFF747FE0546A2
:1036AC001CE02E46E8E70126354620E0B3F1806F9A
:1036BC0014D0B3F1A06F11D0B3F1407F0ED001261E
:1036CC00354614E04A4AD36A43F40033D36205E02A
:1036DC00002104F12800FFF7ADFE0546C5B9444AA8
:1036EC00936D23F0E063D4F8A8100B439365236823
:1036FC0013F0007F24D0E36C202B13D00DD8BBB17A
:10370C00102B07D13A4AD36A43F40033D3620FE04B
:10371C002E46ECE70126354612E0302B08D0012668
:10372C0035460DE0022104F10800FFF7FFFD0546C8
:10373C00D5B92F4AD36C23F03003E16C0B43D3641F
:10374C00236813F4805F31D0E36DB3F5005F1FD0B5
:10375C000FD8BBB1B3F5805F08D1002104F108008C
:10376C00FFF7E4FD054619E02E46E9E7012635464C
:10377C001CE0B3F5405F11D0B3F5804F0ED001269D
:10378C00354613E01A4AD36A43F40033D36205E09A
:10379C00002104F12800FFF74DFE054615BB144A25
:1037AC00136D23F4E043E16D0B431365236813F4AD
:1037BC00005F33D0236EB3F5003F27D01AD843B146
:1037CC00B3F5803F10D1012104F10800FFF7AEFDE5
:1037DC00054615BB064A136D23F4E023216E0B43FB
:1037EC0013651BE02E46E1E70126354616E000BFC7
:1037FC0000440258B3F5802FEBD0B3F5A02FE8D0DE
:10380C00B3F5403FE5D00126354607E0012104F130
:10381C002800FFF70FFE0546DBE72E46236813F45E
:10382C00804F30D0D4F8AC30B3F1005F23D016D831
:10383C0043B1B3F1805F0FD1012104F10800FFF710
:10384C0075FD0546F5B98B4A936D23F0E043D4F82A
:10385C00AC100B43936516E00126354613E0B3F12B
:10386C00804FEFD0B3F1A04FECD0B3F1405FE9D073
:10387C000126354607E0012104F12800FFF7DAFDA7
:10388C000546DFE72E46236813F4004F20D0E36E85
:10389C00B3F1805F06D0B3F1005F11D03BB10126CC
:1038AC00354615E0734AD36A43F40033D36275B9D5
:1038BC00704A136D23F04053E16E0B43136507E020
:1038CC00012104F10800FFF731FD0546EFE72E4614
:1038DC00236813F0807F13D0A36C032B3BD8DFE855
:1038EC0003F007023307634AD36A43F40033D3620D
:1038FC00A5BB604AD36C23F00303A16C0B43D364C8
:10390C00236813F4800F2BD1236813F0010F00F000
:10391C00A380A36F282B00F29D80DFE803F08B9B24
:10392C009B9B9B9B9B9B859B9B9B9B9B9B9B949BF8
:10393C009B9B9B9B9B9B8B9B9B9B9B9B9B9B8B9BEB
:10394C009B9B9B9B9B9B8B00022104F10800FFF728
:10395C00EDFC0546CCE701263546D1E72E46CFE7F0
:10396C00454A136843F480731360FDF70DF907465D
:10397C00414B1B6813F4807F05D1FDF705F9C01B83
:10398C006428F5D90325002D4AD13A4B1B6FD4F886
:10399C00B020534013F4407F0CD0364B1A6F22F4F6
:1039AC004072196F41F480311967196F21F480311D
:1039BC0019671A67D4F8B030B3F5807F15D08DBB7A
:1039CC00D4F8B03003F44072B2F5407F1ED0294ACF
:1039DC00136923F47C53136126490B6FD4F8B02080
:1039EC00C2F30B0213430B678EE7FDF7CDF80746C6
:1039FC00204B1B6F13F0020FE1D1FDF7C5F8C01B74
:103A0C0041F288339842F3D90325D8E71948026963
:103A1C0022F47C52194901EA131313430361DBE7C7
:103A2C002E4671E72E466FE7012104F10800FFF7DF
:103A3C007DFC0546E5B90F4A536D23F03803A16FA1
:103A4C000B43536508E0012104F12800FFF7F2FC59
:103A5C000546EFE701263546236813F0020F1DD00B
:103A6C00636F052B32D8DFE803F0110B2A1111110B
:103A7C002E46F1E70044025800480258CFFFFF00E1
:103A8C00012104F10800FFF751FC05460DBBB74AB4
:103A9C00536D23F00703616F0B435365236813F0D9
:103AAC00040F29D0D4F89030052B00F20881DFE800
:103ABC0013F018001200FF00180018001800012164
:103ACC0004F12800FFF7B6FC0546DFE70126354672
:103ADC00E4E72E46E2E7012104F10800FFF726FC9B
:103AEC000546002D40F0EE80A04A936D23F00703AD
:103AFC00D4F890100B439365236813F0200F1DD05E
:103B0C00D4F88C30B3F1005F00F0F08000F2DF806D
:103B1C004BB1B3F1805F40F0D780002104F1080075
:103B2C00FFF704FC0546002D40F0E7808F4A536DEB
:103B3C0023F0E043D4F88C100B435365236813F047
:103B4C00400F1DD0D4F89830B3F5006F00F0E98029
:103B5C0000F2D8804BB1B3F5806F40F0D0800021DB
:103B6C0004F10800FFF7E2FB0546002D40F0E08071
:103B7C007E4A936D23F4E053D4F898100B4393656D
:103B8C00236813F0800F1DD0D4F89C30B3F5804F10
:103B9C0000F0E28000F2D1804BB1B3F5005F40F051
:103BAC00C980002104F10800FFF7C0FB0546002D79
:103BBC0040F0D9806D4A936D23F46043D4F89C1087
:103BCC000B439365236813F0080F0DD0D4F88030A5
:103BDC00B3F5805F00F0CC80644A536D23F44053FE
:103BEC00D4F880100B435365236813F0100F0DD0DD
:103BFC00D4F89430B3F5807F00F0C4805B4A936DA9
:103C0C0023F44073D4F894100B439365236813F496
:103C1C00002F1CD0D4F8A030B3F5803F00F0BC804E
:103C2C00B3F5003F08D0002B40F0BD80002104F11B
:103C3C000800FFF77BFB0546002D40F0B7804B4A90
:103C4C00936D23F44033D4F8A0100B439365236891
:103C5C0013F4802F1CD0D4F88430B3F5001F00F07F
:103C6C00A780B3F5401F08D0B3F5801F40F0A780A4
:103C7C003E4AD36A43F40033D362002D40F0A28055
:103C8C003A4A536D23F44013D4F884100B43536514
:103C9C00236813F4803F00F0AD80236D002B00F0FF
:103CAC009380B3F5803F00F09D8001263546A1E05E
:103CBC00012104F12800FFF7BDFB054611E70126A1
:103CCC00354619E72E4617E70126354636E7B3F198
:103CDC00804F3FF428AFB3F1A04F3FF424AFB3F1C2
:103CEC00405F3FF420AF0126354627E7022104F15F
:103CFC002800FFF79FFB054615E72E461EE7012619
:103D0C0035463DE7B3F5805F3FF42FAFB3F5A05FC9
:103D1C003FF42BAFB3F5406F3FF427AF0126354688
:103D2C002EE7022104F12800FFF784FB05461CE76F
:103D3C002E4625E70126354644E7B3F5004F3FF400
:103D4C0036AFB3F5204F3FF432AFB3F5C04F3FF46D
:103D5C002EAF0126354635E7022104F12800FFF786
:103D6C0069FB054623E72E462CE700BF00440258AA
:103D7C00022104F12800FFF75DFB00283FF42CAF73
:103D8C00012629E7022104F12800FFF753FB002844
:103D9C003FF434AF012631E7022104F12800FFF78C
:103DAC0049FB054648E70126354650E72E464EE7C7
:103DBC00012104F12800FFF73DFB05465DE70126D4
:103DCC00354665E72E4663E7694AD36A43F4003308
:103DDC00D36275B9664AD36C23F48033216D0B43DF
:103DEC00D36407E0022104F10800FFF79FFA0546AF
:103DFC00EFE72E46236813F0005F10D1236813F40D
:103E0C00003F26D0E36FB3F5807F14D010D9B3F503
:103E1C00007F15D0B3F5407F12D0012619E00221A6
:103E2C0004F12800FFF706FB0028E7D00126E5E7A0
:103E3C0033B101260DE04E4AD36A43F40033D3620A
:103E4C00002D5CD14A4A536D23F44073E16F0B4350
:103E5C005365236813F4801F06D0454A136D23F075
:103E6C000043216F0B431365236813F4001F06D026
:103E7C003F4A136D23F08073A16E0B4313652368C7
:103E8C0013F0804F09D03A4B1A6922F400421A61A0
:103E9C001A69D4F8B4100A431A612368002B06DAA5
:103EAC00334AD36C23F04053616D0B43D3642368C6
:103EBC0013F4000F07D02E4A536D23F44003D4F8AB
:103ECC0088100B435365636813F0010F19D16368B5
:103EDC0013F0020F1ED1636813F0040F23D1636833
:103EEC0013F0080F28D1636813F0100F2DD16368FD
:103EFC0013F0200F32D106B101263046F8BD2E4604
:103F0C00A7E7002104F10800FFF710FA0028DED023
:103F1C000646DCE7012104F10800FFF707FA002848
:103F2C00D9D00646D7E7022104F10800FFF7FEF9C5
:103F3C000028D4D00646D2E7002104F12800FFF770
:103F4C0079FA0028CFD00646CDE7012104F12800EC
:103F5C00FFF770FA0028CAD00646C8E7022104F120
:103F6C002800FFF767FA0028C5D00126C5E700BF77
:103F7C000044025830B4036A046A24F00104046259
:103F8C00114D124CA04218BFA8420DD004F580442C
:103F9C00A04214BF0024012405F58045A84203D09B
:103FAC0014B90B4CA04203D1046A24F0040404623B
:103FBC00846924F0F00C4CEA021223F00A03194332
:103FCC008261016230BC7047000001400004014076
:103FDC000048014030B4036A046A24F010040462FF
:103FEC000B4D0C4CA04218BFA84203D1046A24F01C
:103FFC0040040462846924F4704C4CEA023223F0CD
:10400C00A00343EA01118261016230BC704700BF1A
:10401C0000000140000401408268034B13400B4335
:10402C0043F00703836070478FFFCFFF70B40368C2
:10403C003E4A904214BF00220122B0F1804F14BFBF
:10404C00144642F00104ACB9394DA84214BF002506
:10405C000125384EB0420DD065B905F1804505F506
:10406C008235A84214BF0025012506F50066B04232
:10407C0000D01DB123F070034D682B4364BB2C4C56
:10408C00A04214BF002401242A4DA84224D01CBBFA
:10409C0004F1804404F58234A04214BF00240124AE
:1040AC0005F50065A84217D0B4B9234CA04214BF43
:1040BC000024012405F59A35A8420DD064B91F4C93
:1040CC00A04214BF0024012405F50065A84203D0CA
:1040DC0014B91B4CA04203D123F44073CC68234386
:1040EC0023F080034C6923438C68C4620C6884629F
:1040FC00144CA04208BF42F0010262B90E4A904231
:10410C0014BF0022012204F57054A04203D012B94E
:10411C000D4A904201D10A690263026842F004021E
:10412C00026001224261036070BC704700000140D4
:10413C0000080040000400400044014000E0004042
:10414C0000E40040000401400048014060B310B599
:10415C00044690F83D3013B3022384F83D302146D9
:10416C0051F8040BFFF762FF012384F8483084F800
:10417C003E3084F83F3084F8403084F8413084F885
:10418C00423084F8433084F8443084F8453084F865
:10419C00463084F8473084F83D30002010BD80F85C
:1041AC003C30FCF705FCD7E70120704710B484685D
:1041BC0024F47F4C42EA03220A4342EA0C02826056
:1041CC005DF8044B7047000090F83C30012B00F078
:1041DC008F8010B50446012380F83C30022380F810
:1041EC003D3002689068434B034093600B68702B22
:1041FC0055D031D8502B6CD01FD8402B0AD1CA685F
:10420C0049682068FFF7B6FE40212068FFF704FFDD
:10421C00002029E068D8202B03D00AD80BB1102B32
:10422C0005D119462068FFF7F7FE00201CE001209D
:10423C001AE0302BF5D0012016E0602B0AD1CA68A9
:10424C0049682068FFF7C6FE60212068FFF7E4FE8E
:10425C00002009E0012007E0B3F5005F2CD00AD85C
:10426C00B3F5805F42D10020012384F83D30002358
:10427C0084F83C3010BD204A9342D2D007D8B3F515
:10428C00801FCED0B3F1101FCBD00120ECE71B4A1E
:10429C009342C6D010329342C3D00120E4E7CB68DE
:1042AC004A6889682068FFF781FF2268936843F0A9
:1042BC00770393600020D7E7CB684A688968206849
:1042CC00FFF774FF2268936843F4804393600020E7
:1042DC00CAE7CA6849682068FFF74CFE502120687D
:1042EC00FFF79AFE0020BFE70120BDE70120BBE7E6
:1042FC00022070478800CEFF200010003000100014
:10430C0090F83C20012A4DD070B40346012280F86D
:10431C003C20022280F83D20026850689468224EAE
:10432C00224DAA4218BFB24203D120F470004D684E
:10433C00284320F070000D68284350601A681A4812
:10434C00B2F1804F18BF82421FD0A0F57C40824250
:10435C001BD000F58060824217D000F5806082424D
:10436C0013D000F5784082420FD0A0F56C40824209
:10437C000BD000F59430824207D0A0F5C0408242A9
:10438C0003D000F58060824204D124F08004896857
:10439C0021439160012283F83D20002083F83C00EA
:1043AC0070BC7047022070470000014000040140BF
:1043BC0082B000230193019B01330193019BB3F164
:1043CC00706F1CD80369002BF5DA0A23019302E005
:1043DC00019B013B0193019B002BF9D1036943F035
:1043EC0001030361019B01330193019BB3F1706FD6
:1043FC0008D8036913F0010FF4D1002000E003206A
:10440C0002B070470320FBE784B010B5044603A844
:10441C0080E80E009DF81130012B1FD1A36B23F403
:10442C008033A363E268214B1340E360E36823F419
:10443C004013E3609DF81830012B0AD02046FFF79B
:10444C00B7FF9DF80E30012B1CD0BDE8104004B016
:10445C007047E36843F48013E360EFE7E36843F0ED
:10446C004003E3602046FFF7A3FF9DF8153023B906
:10447C00A36B43F48033A363E3E7A36B23F4803390
:10448C00A363DEE7E36D9BB2E365E26D084B134378
:10449C00E365A36823F01E03A360A36843F006033F
:1044AC00A360A36843F02003A360CEE7BFFFBDFF6A
:1044BC000000EE03022A0AD00922C36823F47053C9
:1044CC00C360C36843EA8223C36000207047204B5B
:1044DC000B44204A934229D91F4B0B441F4A934249
:1044EC0026D91F4B0B441F4A934223D91E4B0B4416
:1044FC001E4A934220D31E4B0B441E4A93421DD995
:10450C001D4B0B441D4A93421AD31D4B0B441D4AA1
:10451C00934217D31C4B0B441C4A934214D31C4B91
:10452C000B441C4A934211D20722C6E70F22C4E760
:10453C000E22C2E70D22C0E70C22BEE70B22BCE71D
:10454C000A22BAE70922B8E70822B6E70622B4E73E
:10455C00405327FFFF340C00401E1BFF3F420F004F
:10456C0000DC0BFF7F4F1200808CF9FE20D613006D
:10457C0060B6E5FE5FE3160000D3CEFE40771B006D
:10458C00C05BB3FEC091210000CA91FE20753800BB
:10459C00E05459FEE09C4100836843F001038360C2
:1045AC0000207047836823F001038360002070476C
:1045BC0082B000230193019B01330193019BB3F162
:1045CC00706F15D80369002BF5DA0023019389016C
:1045DC0041F020010161019B01330193019BB3F177
:1045EC00706F08D8036913F0200FF4D1002000E09D
:1045FC00032002B070470320FBE782B00023019335
:10460C00019B01330193019BB3F1706F13D80369C4
:10461C00002BF5DA0023019310230361019B013376
:10462C000193019BB3F1706F08D8036913F0100F5D
:10463C00F4D1002000E0032002B070470320FBE718
:10464C00D0F800381943C0F800180020704700005B
:10465C0084B0F8B5044607A880E80E00002306E0F5
:10466C0003F1400204EB82020021516001330E2B56
:10467C00F6D99DF8266006BBD4F8043843F0020343
:10468C00C4F80438A36B23F40013A363236843F02A
:10469C0040032360236843F0800323600023C4F8A5
:1046AC00003E9DF82130012B11D19DF81F304BB9E4
:1046BC0000212046FFF7C4FF0DE0A36B43F4001369
:1046CC00A363EBE701212046FFF7BAFF03E00321C8
:1046DC002046FFF7B5FF10212046FFF769FF05467E
:1046EC0000B101252046FFF788FF00B1012504F534
:1046FC00006C0023CCF81030CCF81430CCF81C3003
:10470C000DE04FF09040C2F8000902E00020C2F822
:10471C00000900220A614FF67F328A6001339DF84E
:10472C001C1099420ED904EB431202F51061D2F819
:10473C0000090028EADA002BE3D14FF00060C2F840
:10474C000009E6E700230AE0BBB14FF09047C2F83E
:10475C00007B002202614FF67F3282600133994266
:10476C0010D904EB431202F53060D2F8007B002F15
:10477C00EADB0027C2F8007BEBE74FF00067C2F8DA
:10478C00007BE6E7DCF8103023F48073CCF81030B3
:10479C000023A3616FF0804363619DF81E301BB949
:1047AC00A36943F01003A361A2690B4B1343A361EC
:1047BC009DF822301BB1A36943F00803A361012EBD
:1047CC0004D02846BDE8F84004B07047A269034BFA
:1047DC001343A361F5E700BF00383C8004000040A0
:1047EC00D0F8083803F00603022B04D0062B04D0B3
:1047FC002BB90020704702207047022070470F2011
:10480C007047000010B591F800C04B78012B21D0F7
:10481C0000F5006ED0F81C380CF00F040122A240F9
:10482C0043EA0243C0F81C3800EB4C10D0F8003BB4
:10483C0013F4004F0CD1D0F8002B8B68C3F30A0390
:10484C00097943EA81431A43134B1343C0F8003BE5
:10485C00002010BDD0F81C280CF00F0E03FA0EF33C
:10486C009BB21343C0F81C3800EB4C10D0F8003945
:10487C0013F4004FECD1D0F800298B68C3F30A0372
:10488C00097943EA814343EA8C531A43024B13439D
:10489C00C0F80039DCE700BF0080001030B40B78A2
:1048AC004A78012A26D000EB4313D3F8002B002AB8
:1048BC0052DBD0F83C480A7802F00F024FF0010CA2
:1048CC000CFA02F224EA0242C0F83C28D0F81C2868
:1048DC00097801F00F010CFA01FC22EA0C42C0F835
:1048EC001C28D3F8001B234A0A40C3F8002B0020D5
:1048FC0030BC704700EB4313D3F80029002A1EDBB1
:10490C00D0F83C580A7802F00F02012404FA02F2A3
:10491C0092B225EA0202C0F83C28D0F81C2809788B
:10492C0001F00F018C40A4B222EA0402C0F81C284A
:10493C00D3F80019104A0A40C3F80029D7E7D3F876
:10494C00002942F00062C3F80029D3F8002942F094
:10495C008042C3F80029D3E7D3F8002B42F0006261
:10496C00C3F8002BD3F8002B42F08042C3F8002B85
:10497C009FE700BF0078F3EF007833EC10B483B0FE
:10498C000246002301938468487801281DD093695E
:10499C0023F080039361536913F0800F05D1D2F893
:1049AC00043843F40073C2F8043814F0200F46D1D5
:1049BC00019B01330193019BB3F5702F2DD85369E3
:1049CC0013F0100FF4D0002028E00B7802EB431307
:1049DC00D3F80049002C01DB002068E0D3F8004933
:1049EC0044F00064C3F800490B7802EB4313D3F88E
:1049FC00004944F08044C3F80049019B0133019302
:104A0C00019BB3F5702F52D80B7802EB4313D3F8FC
:104A1C000039002BF1DB002049E00120136A0093E0
:104A2C00009B00230193019B01330193019BB3F580
:104A3C00702F06D8536913F0800FF4D002E00020D9
:104A4C00EFE701200B7802EB4313D3F8004B44F053
:104A5C000064C3F8004B0B7802EB4313D3F8004B04
:104A6C0044F08044C3F8004B00230193019B0133B5
:104A7C000193019BB3F5702F09D80B7802EB43130C
:104A8C0003F530639B6813F0020FEFD000E00120B8
:104A9C000B7802EB4313D3F8081B41F00201C3F867
:104AAC00081BD2F8043843F48063C2F8043803B00E
:104ABC005DF8044B70470B784A78012A14D000EB50
:104ACC004310D0F8002B002A06DB2BB1D0F8003BAA
:104ADC0023F08043C0F8003BD0F8003B43F40013B4
:104AEC00C0F8003B0020704700EB4310D0F80029C1
:104AFC00002A06DB2BB1D0F8003923F08043C0F834
:104B0C000039D0F8003943F40013C0F80039E9E754
:104B1C000B784A78012A0ED000EB4310D0F8003BFA
:104B2C0023F40013C0F8003B0B79023BDBB2012BE2
:104B3C0015D90020704700EB4310D0F8003923F44E
:104B4C000013C0F800390B79023BDBB2012BF0D813
:104B5C00D0F8003943F08053C0F80039E9E7D0F8B9
:104B6C00003B43F08053C0F8003BE2E710B59DF8E2
:104B7C00084084B903334FEA930E4FF0000C08E061
:104B8C0000EB023303F5805351F8044B1C600CF11D
:104B9C00010CF445F4D3002010BD0000F0B583B037
:104BAC000C784B78012B2DD000EB441C0CF53063AA
:104BBC001D696FF312051D611D696FF3DC451D61E5
:104BCC00002C40F0CE800C690CB18C680C618C68A8
:104BDC000C621D69C4F312042C431C611C6944F45F
:104BEC0000241C61012A00F0DF800B79012B00F0FE
:104BFC00E180DCF8003B43F00443CCF8003B0020A0
:104C0C0003B0F0BD0B6973BB00EB4413D3F8105920
:104C1C006FF3DC45C3F81059D3F8105945F400254F
:104C2C00C3F81059D3F810596FF31205C3F8105983
:104C3C00012A54D000EB4414D4F8003943F0044357
:104C4C00C4F800390B79012B72D00B69002BD6D02C
:104C5C00D0F83438097801F00F0101228A4013434F
:104C6C00C0F83438CBE700EB441303F510631D692F
:104C7C006FF312051D611D696FF3DC451D6184B96D
:104C8C000E698D68AE4200D90D611D6945F4002591
:104C9C001D611D690E69C6F3120C45EA0C051D61F8
:104CAC00C6E70D698E683544013DB5FBF6F51E6906
:104CBC001FFA85FC494F07EAC54535431D610D793F
:104CCC00012DE6D11D6925F0C0451D611D694FEA16
:104CDC004C7C0CF0C04C45EA0C051D61D9E7CB6946
:104CEC001BB100EB4412C2F814390B79012B08D01C
:104CFC0000EB4414D4F8003943F00443C4F80039F1
:104D0C007DE7D0F8083813F4807F08D100EB44120B
:104D1C00D2F8003943F00053C2F80039E8E700EB51
:104D2C004412D2F8003943F08053C2F80039DFE75F
:104D3C00D0F8083813F4807F0CD1D4F8003943F044
:104D4C000053C4F8003900920B8A0A78C968FFF73F
:104D5C000DFF54E7D4F8003943F08053C4F8003900
:104D6C00F1E70C6954B91C698D68C5F312052C4325
:104D7C001C611C6944F400241C6133E78D682C44CD
:104D8C00013CB4FBF5F4A4B204FB05F50D621D69FE
:104D9C00124E06EAC4442C431C611C690D6AC5F30F
:104DAC0012052C431C611DE7CA68002A3FF41DAF95
:104DBC005A611AE7D0F8083813F4807F06D1DCF872
:104DCC00003B43F00053CCF8003B12E7DCF8003B0F
:104DDC0043F08053CCF8003B0BE700BF0000F81FFA
:104DEC0010B5844608464FEA920E02F003020023E7
:104DFC0005E00CF58051096840F8041B013373453C
:104E0C00F7D37AB10CF5805CDCF800400021CBB212
:104E1C00DB0024FA03F300F8013B0131013A92B2B2
:104E2C00002AF4D110BDD0F8003823F4FE63C0F88A
:104E3C000038D0F80038090101F4FE610B43C0F8CA
:104E4C00003800207047D0F8003E23F00303C0F870
:104E5C00003ED0F8043823F00203C0F804380020D8
:104E6C007047D0F8003E23F00303C0F8003ED0F8A2
:104E7C00043843F00203C0F804380020704742693C
:104E8C00806910407047D0F8183800F50060C06990
:104E9C001840000C7047D0F8183800F50060C06955
:104EAC00184080B2704700EB4111D1F8082B00F587
:104EBC000060406910407047D0F81028D0F83438A2
:104ECC0001F00F0C23FA0CF3DB01DBB2134300EB04
:104EDC00411000F51060806818407047406900F080
:104EEC000100704738B50546C36823F0C043C36062
:104EFC00012913D019BBC36843F08043C36000245D
:104F0C000A20FBF747FE0A342846FFF7E7FF08B1F3
:104F1C00C72CF5D9C82C14D0002038BDC36843F079
:104F2C000053C36000240A20FBF734FE0A342846E1
:104F3C00FFF7D4FF0128EDD0C72CF4D9EAE7012004
:104F4C00EBE70120E9E7D0F800396FF30A03C0F86A
:104F5C000039D0F8043843F48073C0F804380020CA
:104F6C007047000010B4046C154B9C4203D9D0F868
:104F7C00003B002B16DB0024C0F8104BD0F8104B74
:104F8C0044F40024C0F8104BD0F8104B44F0180433
:104F9C00C0F8104BD0F8104B44F0C044C0F8104B84
:104FAC00012903D000205DF8044B7047C0F8142B86
:104FBC00D0F8003B43F08023C0F8003BF2E700BF81
:104FCC000A30544F10B5D0F8D43203F1B00250F877
:104FDC0022408CB100EB820043687BB194F8000254
:104FEC00FF280DD09B6894F8012221469847FF2397
:104FFC0084F80032002010BD0320FCE70020FAE703
:10500C000020F8E70A230380004870478C00002436
:10501C00F8B506460F4F8221384600F03DFC054698
:10502C000121384600F038FC04468121384600F056
:10503C0033FC0DB11022AA711CB140222271002246
:10504C00627118B1402202710022427143233380F5
:10505C000048F8BD10000024F8B506460F4F822119
:10506C00384600F019FC05460121384600F014FCC6
:10507C0004468121384600F00FFC0DB11022AA71B4
:10508C001CB1402222710022627118B140220271BF
:10509C0000224271432333800048F8BD10000024E5
:1050AC00F8B506460F4F8221384600F0F5FB054651
:1050BC000121384600F0F0FB04468121384600F00F
:1050CC00EBFB0DB11022AA711CB10022227102223D
:1050DC00627118B1002202710222427143233380A3
:1050EC000048F8BD1000002438B5D0F8D432B033E5
:1050FC0050F8235095B1044601F0A2FBC5F80C0200
:10510C00D4F8D432B03304EB83046368DB6805F560
:10511C000371D5F804029847002038BD0320FCE742
:10512C0038B5D0F8C852D0F8D432B03350F8234048
:10513C0084B301F00F0303EB830200EB820252698C
:10514C004AB103EBC30C05EB8C05ED69B2FBF5FC26
:10515C0005FB1C2292B10023C4F81432D0F8D432CF
:10516C00B03300EB830043681B69ABB10A4604F50E
:10517C000471D4F808029847002038BD03EB830370
:10518C0000EB830300245C612346224601F0A0FB64
:10519C002046F2E70320F0E70020EEE7F0B583B0FD
:1051AC00D0F8D43203F1B00250F8227000228DF8FE
:1051BC000720ADF80420002F78D004460D4609785E
:1051CC0011F0600634D0202E69D1EA882AB311F090
:1051DC00800F0ED16B7887F80032EA883F2A1AD8F4
:1051EC00D2B287F801223946204600F037FF00265C
:1051FC0059E0B03300EB83035B689B6839466878F1
:10520C009847EA88072A28BF07223946204600F02B
:10521C000FFF002647E04022E3E7B03300EB8303A7
:10522C005B689B68002229466878984700263AE01C
:10523C006F780B2F2ED8DFE807F006362D2D2D2D8D
:10524C002D2D2D2D152490F89C32032B04D029469E
:10525C0000F05FFB032626E0022201A900F0E8FE25
:10526C003E4620E090F89C32032B04D0294600F0F7
:10527C0050FB032617E001220DF1070100F0D8FEC8
:10528C0011E090F89C32032B0DD0294600F041FB25
:10529C00032608E0294600F03CFB032603E02946E0
:1052AC0000F037FB0326304603B0F0BD0326FAE7C7
:1052BC0038B50446812101F0EBFA002584F837500B
:1052CC000121204601F0E4FA84F87751822120462E
:1052DC0001F0DEFA84F84B506564D4F8D43203F153
:1052EC00B00254F822209AB1B03304EB83035B680C
:1052FC005B689847D4F8D432B03354F8230001F0EB
:10530C00A9FAD4F8D432B03344F82350C4F8BC52C0
:10531C00002038BD70B504464FF4077001F096FAC2
:10532C00002849D005464FF40772002101F0E0FA3D
:10533C00D4F8D432B03344F82350C4F8BC52237C94
:10534C00002B41D14FF4007302228121204601F041
:10535C0094FA012684F837604FF400730222314628
:10536C00204601F08AFA84F87761102363640823DD
:10537C0003228221204601F080FA012384F84B306D
:10538C000026C5F80462D4F8D432B03304EB83039E
:10539C005B681B689847C5F81462C5F81862D5F8A5
:1053AC00042262B3257C1DBB4FF4007301212046FF
:1053BC0001F096FA284670BDD4F8D432B0330022EE
:1053CC0044F823200225F5E74023022281212046C0
:1053DC0001F053FA012684F837604023022231464B
:1053EC00204601F04AFA84F8776110236364BEE723
:1053FC0040230121204601F073FA0025DAE702254B
:10540C00D8E739B1D0F8D432B03300EB8300416027
:10541C000020704703207047D0F8D432B03350F8D6
:10542C0023302BB1C3F80812C3F8102200207047A8
:10543C0003207047D0F8D432B03350F823301BB16E
:10544C00C3F80412002070470320704708B5D0F849
:10545C00D432B03350F823208AB1D2F814320BB1C5
:10546C00012008BD0123C2F81432D2F81032836235
:10547C00D2F80822812101F02BFA0020F1E7032059
:10548C00EFE710B5D0F8D432B03350F8232092B1F6
:10549C00047C44B94FF40073D2F80422012101F0CA
:1054AC001FFA204610BD4023D2F80422012101F03E
:1054BC0017FA0024F5E70324F3E798B108B503467F
:1054CC000020C3F8B802C3F8C402C3F8D00209B173
:1054DC00C3F8B412012183F89C121A70184601F01B
:1054EC0061F908BD0320704710B582B00023ADF8F8
:1054FC000630B9B10446C0F8B812D0F8D422CB6A41
:10550C0043B1AE3250F82230DB6A0DF106009847F9
:10551C00C4F8D002D4F8D8320133C4F8D832002001
:10552C0002B010BD0320FBE708B501F09EF908BDE1
:10553C0008B5D0F8B83213B11B68984708BD0020E5
:10554C00FCE708B5D0F8B8325B68984700B908BDDD
:10555C000320FCE738B5044600F2AA25284600F0E3
:10556C00C4F90123C4F89432B4F8B032C4F89832B8
:10557C0094F8AA1201F01F03012B07D0022B0AD0BA
:10558C0073B92946204600F095FB38BD29462046C4
:10559C0000F0CBFBF9E72946204600F008FCF4E7C5
:1055AC0001F08001204601F07BF9EEE7F8B50446E6
:1055BC00012380F89C320023C0F894324360C0F879
:1055CC00A43280F8A032D0F8B832E3B15B68E3B112
:1055DC00002198470746D0B94023002211462046A7
:1055EC0001F04BF9012684F863614025A4F8605161
:1055FC002B4600228021204601F03FF984F82360DD
:10560C0025843846F8BD0027E6E70027E4E70327A2
:10561C00E2E701740020704790F89C32042B04D010
:10562C0090F89C32DBB280F89D32042380F89C32D7
:10563C000020704790F89C32042B01D0002070475A
:10564C0090F89D32DBB280F89C32F7E708B590F801
:10565C009C32032B01D0002008BDD0F8B832002BAF
:10566C00F9D0DB69002BF6D09847F4E708B5D0F8F1
:10567C00D432AE3350F8233053B190F89C22032A25
:10568C0001D0002008BD1B6A23B198470020F9E720
:10569C000320F7E70020F5E708B5D0F8D432AE3395
:1056AC0050F8233053B190F89C22032A01D00020EB
:1056BC0008BD5B6A23B198470020F9E70320F7E7A0
:1056CC000020F5E70020704708B5012380F89C32D4
:1056DC00D0F8B83223B15B680179984710B908BD8E
:1056EC000020FCE70320FAE70020704700207047F9
:1056FC0038B504460D46002944D1D0F89432032B1A
:10570C0001D0084638BDD0F85831B0F8602193422A
:10571C0009D890F8AA3203F01F03012B12D0022BE8
:10572C001ED0084613E09B1AC0F85831D0F864110B
:10573C001144C0F864119A4238BF1A4600F09FFC1D
:10574C002846DFE790F8AE12FFF7CEFF18B994F8B1
:10575C009C32032B09D0204600F099FC2846D1E757
:10576C0090F8AE12FFF7C2FFF0E700F1AE0354F869
:10577C0023301A69002AEED0C4F8D4021B692046E3
:10578C009847E8E701F07F01FFF7B0FF88B994F87C
:10579C009C32032BB6D100F1AE0354F823309A6936
:1057AC00002AAFD0C4F8D4029B69294620469847FA
:1057BC00A8E70020A6E738B504460D4600294BD1D2
:1057CC00D0F89432022B07D094F8A00218B1002321
:1057DC0084F8A032284638BD8269038C9A420DD8D1
:1057EC009A4219D094F89C32032B29D08021204660
:1057FC0001F056F8204600F055FCE5E7D21A82611C
:10580C00416A1944416200F021FC00231A461946F2
:10581C00204601F065F8D7E742699342E2D8D0F808
:10582C0098329A42DED20022114600F00FFC002181
:10583C00C4F898120B460A46204601F051F8C3E70B
:10584C00D4F8B832DA68002AD0D00022C4F8D422B6
:10585C00DB6820469847C9E741F08001FFF746FF17
:10586C0088B994F89C32032BB5D100F1AE0354F8EF
:10587C0023305A69002AAED0C4F8D4025B69294699
:10588C0020469847A7E70020A5E70B880278134429
:10589C000B80037818447047428803789A4218D9D1
:1058AC0030B583B004460D46ADF806306388BDF8BC
:1058BC0006209A420AD20DF10601FFF7E6FF437863
:1058CC00052BF3D18378AB42F0D100E0002003B07C
:1058DC0030BD002070470346002002E00130C0B20A
:1058EC0001331A78002AF9D170470B7803704B7882
:1058FC0043708B78CA7843EA022343800B794A7948
:10590C0043EA022383808B79CA7943EA0223C3805A
:10591C00704710B50446802100F0C2FF00212046DC
:10592C0000F0BEFF10BD30B583B005460C46002319
:10593C00ADF806304A88130A013B0E2B00F2BB80EF
:10594C00DFE803F0152F43B9B99DAAB9B9B9B9B9B4
:10595C00B9B90800D0F8B432DB6923B10DF10601F6
:10596C00007C98470AE02146FFF7D3FFA6E0D0F869
:10597C00B4321B680DF10601007C9847E288002ABE
:10598C0000F0A380BDF80630002B00F099809A42FD
:10599C0028BF1A46ADF806200146284600F048FB01
:1059AC008CE0037C43B9D0F8B8329B6A0DF1060049
:1059BC00984702234370E1E7D0F8B832DB6A0DF167
:1059CC000600984702234370D8E7D2B2052A52D872
:1059DC00DFE802F003101D2A3744D0F8B4325B68BC
:1059EC0023B10DF10601007C9847C7E72146FFF76C
:1059FC0090FF63E0D0F8B4329B6823B10DF106013F
:105A0C00007C9847BAE72146FFF783FF56E0D0F8B1
:105A1C00B432DB6823B10DF10601007C9847ADE789
:105A2C002146FFF776FF49E0D0F8B4321B6923B169
:105A3C000DF10601007C9847A0E72146FFF769FFAE
:105A4C003CE0D0F8B4325B6923B10DF10601007C67
:105A5C00984793E72146FFF75CFF2FE0D0F8B4326C
:105A6C009B6923B10DF10601007C984786E721461E
:105A7C00FFF74FFF22E02146FFF74BFF1EE0037CB0
:105A8C0033B9D0F8B8325B6B0DF10600984775E767
:105A9C002146FFF73EFF11E0037C43B9D0F8B83242
:105AAC001B6B0DF1060098470723437066E72146F0
:105ABC00FFF72FFF02E02146FFF72BFF03B030BDAD
:105ACC0021462846FFF725FFF8E7284600F0DFFAC5
